{
  "contractName": "Lottery",
  "abi": [
    {
      "inputs": [],
      "stateMutability": "nonpayable",
      "type": "constructor"
    },
    {
      "inputs": [],
      "name": "duration",
      "outputs": [
        {
          "internalType": "uint256",
          "name": "",
          "type": "uint256"
        }
      ],
      "stateMutability": "view",
      "type": "function",
      "constant": true
    },
    {
      "inputs": [],
      "name": "lastTimeStamp",
      "outputs": [
        {
          "internalType": "uint256",
          "name": "",
          "type": "uint256"
        }
      ],
      "stateMutability": "view",
      "type": "function",
      "constant": true
    },
    {
      "inputs": [],
      "name": "lottery_state",
      "outputs": [
        {
          "internalType": "enum Lottery.LOTTERY_STATE",
          "name": "",
          "type": "uint8"
        }
      ],
      "stateMutability": "view",
      "type": "function",
      "constant": true
    },
    {
      "inputs": [],
      "name": "owner",
      "outputs": [
        {
          "internalType": "address",
          "name": "",
          "type": "address"
        }
      ],
      "stateMutability": "view",
      "type": "function",
      "constant": true
    },
    {
      "inputs": [
        {
          "internalType": "uint256",
          "name": "",
          "type": "uint256"
        }
      ],
      "name": "players",
      "outputs": [
        {
          "internalType": "address",
          "name": "",
          "type": "address"
        }
      ],
      "stateMutability": "view",
      "type": "function",
      "constant": true
    },
    {
      "inputs": [],
      "name": "random",
      "outputs": [
        {
          "internalType": "address",
          "name": "",
          "type": "address"
        }
      ],
      "stateMutability": "view",
      "type": "function",
      "constant": true
    },
    {
      "inputs": [],
      "name": "winner",
      "outputs": [
        {
          "internalType": "address payable",
          "name": "",
          "type": "address"
        }
      ],
      "stateMutability": "view",
      "type": "function",
      "constant": true
    },
    {
      "inputs": [
        {
          "internalType": "address",
          "name": "_random",
          "type": "address"
        }
      ],
      "name": "initialize",
      "outputs": [],
      "stateMutability": "nonpayable",
      "type": "function"
    },
    {
      "inputs": [],
      "name": "enter",
      "outputs": [],
      "stateMutability": "payable",
      "type": "function",
      "payable": true
    },
    {
      "inputs": [
        {
          "internalType": "uint256",
          "name": "_duration",
          "type": "uint256"
        }
      ],
      "name": "startNewLottery",
      "outputs": [],
      "stateMutability": "nonpayable",
      "type": "function"
    },
    {
      "inputs": [
        {
          "internalType": "bytes",
          "name": "",
          "type": "bytes"
        }
      ],
      "name": "checkUpkeep",
      "outputs": [
        {
          "internalType": "bool",
          "name": "upkeepNeeded",
          "type": "bool"
        },
        {
          "internalType": "bytes",
          "name": "",
          "type": "bytes"
        }
      ],
      "stateMutability": "view",
      "type": "function",
      "constant": true
    },
    {
      "inputs": [
        {
          "internalType": "bytes",
          "name": "",
          "type": "bytes"
        }
      ],
      "name": "performUpkeep",
      "outputs": [],
      "stateMutability": "nonpayable",
      "type": "function"
    },
    {
      "inputs": [
        {
          "internalType": "uint256",
          "name": "randomness",
          "type": "uint256"
        }
      ],
      "name": "pickWinner",
      "outputs": [],
      "stateMutability": "nonpayable",
      "type": "function"
    },
    {
      "inputs": [],
      "name": "getPlayers",
      "outputs": [
        {
          "internalType": "address[]",
          "name": "",
          "type": "address[]"
        }
      ],
      "stateMutability": "view",
      "type": "function",
      "constant": true
    },
    {
      "inputs": [],
      "name": "getPool",
      "outputs": [
        {
          "internalType": "uint256",
          "name": "",
          "type": "uint256"
        }
      ],
      "stateMutability": "view",
      "type": "function",
      "constant": true
    },
    {
      "inputs": [],
      "name": "stopLottery",
      "outputs": [],
      "stateMutability": "nonpayable",
      "type": "function"
    }
  ],
  "bytecode": "0x608060405234801561001057600080fd5b5033600360006101000a81548173ffffffffffffffffffffffffffffffffffffffff021916908373ffffffffffffffffffffffffffffffffffffffff16021790555060016000806101000a81548160ff0219169083600281111561007757610076610081565b5b02179055506100b0565b7f4e487b7100000000000000000000000000000000000000000000000000000000600052602160045260246000fd5b61150a806100bf6000396000f3fe6080604052600436106100f35760003560e01c80638b5b9ccc1161008a578063dfbf53ae11610059578063dfbf53ae146102f5578063e97dcb6214610320578063f71d96cb1461032a578063f737d21d14610367576100f3565b80638b5b9ccc1461025f5780638da5cb5b1461028a578063c4d66de8146102b5578063d5c62498146102de576100f3565b80634edf7a95116100c65780634edf7a95146101a25780635ec01e4d146101cb5780636e04ff0d146101f65780638144799914610234576100f3565b8063026b1d5f146100f85780630fb5a6b4146101235780633f3b3b271461014e5780634585e33b14610179575b600080fd5b34801561010457600080fd5b5061010d610390565b60405161011a9190611120565b60405180910390f35b34801561012f57600080fd5b50610138610398565b6040516101459190611120565b60405180910390f35b34801561015a57600080fd5b5061016361039e565b6040516101709190611120565b60405180910390f35b34801561018557600080fd5b506101a0600480360381019061019b9190610dee565b6103a4565b005b3480156101ae57600080fd5b506101c960048036038101906101c49190610e3b565b6104c1565b005b3480156101d757600080fd5b506101e061060c565b6040516101ed9190610ffd565b60405180910390f35b34801561020257600080fd5b5061021d60048036038101906102189190610dee565b610632565b60405161022b929190611055565b60405180910390f35b34801561024057600080fd5b50610249610696565b6040516102569190611085565b60405180910390f35b34801561026b57600080fd5b506102746106a7565b6040516102819190611033565b60405180910390f35b34801561029657600080fd5b5061029f610735565b6040516102ac9190610ffd565b60405180910390f35b3480156102c157600080fd5b506102dc60048036038101906102d79190610d94565b61075b565b005b3480156102ea57600080fd5b506102f36107f9565b005b34801561030157600080fd5b5061030a61087f565b6040516103179190611018565b60405180910390f35b6103286108a5565b005b34801561033657600080fd5b50610351600480360381019061034c9190610e3b565b61097e565b60405161035e9190610ffd565b60405180910390f35b34801561037357600080fd5b5061038e60048036038101906103899190610e3b565b6109bd565b005b600047905090565b60055481565b60065481565b734cb093f226983713164a62138c3f718a5b595f7373ffffffffffffffffffffffffffffffffffffffff163373ffffffffffffffffffffffffffffffffffffffff16146103f057600080fd5b60026000806101000a81548160ff0219169083600281111561041557610414611320565b5b0217905550600460009054906101000a900473ffffffffffffffffffffffffffffffffffffffff1673ffffffffffffffffffffffffffffffffffffffff1663dbdff2c16040518163ffffffff1660e01b8152600401602060405180830381600087803b15801561048457600080fd5b505af1158015610498573d6000803e3d6000fd5b505050506040513d601f19601f820116820180604052508101906104bc9190610dc1565b505050565b600360009054906101000a900473ffffffffffffffffffffffffffffffffffffffff1673ffffffffffffffffffffffffffffffffffffffff163373ffffffffffffffffffffffffffffffffffffffff161461051b57600080fd5b6001600281111561052f5761052e611320565b5b60008054906101000a900460ff16600281111561054f5761054e611320565b5b1461058f576040517f08c379a0000000000000000000000000000000000000000000000000000000008152600401610586906110e0565b60405180910390fd5b60008060006101000a81548160ff021916908360028111156105b4576105b3611320565b5b02179055506000600260006101000a81548173ffffffffffffffffffffffffffffffffffffffff021916908373ffffffffffffffffffffffffffffffffffffffff160217905550806005819055504260068190555050565b600460009054906101000a900473ffffffffffffffffffffffffffffffffffffffff1681565b600060606000600281111561064a57610649611320565b5b60008054906101000a900460ff16600281111561066a57610669611320565b5b141561068a576005546006544261068191906111a1565b1015915061068f565b600091505b9250929050565b60008054906101000a900460ff1681565b6060600180548060200260200160405190810160405280929190818152602001828054801561072b57602002820191906000526020600020905b8160009054906101000a900473ffffffffffffffffffffffffffffffffffffffff1673ffffffffffffffffffffffffffffffffffffffff16815260200190600101908083116106e1575b5050505050905090565b600360009054906101000a900473ffffffffffffffffffffffffffffffffffffffff1681565b600360009054906101000a900473ffffffffffffffffffffffffffffffffffffffff1673ffffffffffffffffffffffffffffffffffffffff163373ffffffffffffffffffffffffffffffffffffffff16146107b557600080fd5b80600460006101000a81548173ffffffffffffffffffffffffffffffffffffffff021916908373ffffffffffffffffffffffffffffffffffffffff16021790555050565b600360009054906101000a900473ffffffffffffffffffffffffffffffffffffffff1673ffffffffffffffffffffffffffffffffffffffff163373ffffffffffffffffffffffffffffffffffffffff161461085357600080fd5b60016000806101000a81548160ff0219169083600281111561087857610877611320565b5b0217905550565b600260009054906101000a900473ffffffffffffffffffffffffffffffffffffffff1681565b600060028111156108b9576108b8611320565b5b60008054906101000a900460ff1660028111156108d9576108d8611320565b5b14610919576040517f08c379a000000000000000000000000000000000000000000000000000000000815260040161091090611100565b60405180910390fd5b6001339080600181540180825580915050600190039060005260206000200160009091909190916101000a81548173ffffffffffffffffffffffffffffffffffffffff021916908373ffffffffffffffffffffffffffffffffffffffff160217905550565b6001818154811061098e57600080fd5b906000526020600020016000915054906101000a900473ffffffffffffffffffffffffffffffffffffffff1681565b600460009054906101000a900473ffffffffffffffffffffffffffffffffffffffff1673ffffffffffffffffffffffffffffffffffffffff163373ffffffffffffffffffffffffffffffffffffffff1614610a1757600080fd5b600280811115610a2a57610a29611320565b5b60008054906101000a900460ff166002811115610a4a57610a49611320565b5b14610a8a576040517f08c379a0000000000000000000000000000000000000000000000000000000008152600401610a81906110a0565b60405180910390fd5b60008111610acd576040517f08c379a0000000000000000000000000000000000000000000000000000000008152600401610ac4906110c0565b60405180910390fd5b600060018054905082610ae09190611291565b905060018181548110610af657610af561134f565b5b9060005260206000200160009054906101000a900473ffffffffffffffffffffffffffffffffffffffff16600260006101000a81548173ffffffffffffffffffffffffffffffffffffffff021916908373ffffffffffffffffffffffffffffffffffffffff160217905550600260009054906101000a900473ffffffffffffffffffffffffffffffffffffffff1673ffffffffffffffffffffffffffffffffffffffff166108fc479081150290604051600060405180830381858888f19350505050158015610bc9573d6000803e3d6000fd5b50600067ffffffffffffffff811115610be557610be461137e565b5b604051908082528060200260200182016040528015610c135781602001602082028036833780820191505090505b5060019080519060200190610c29929190610c58565b5060016000806101000a81548160ff02191690836002811115610c4f57610c4e611320565b5b02179055505050565b828054828255906000526020600020908101928215610cd1579160200282015b82811115610cd05782518260006101000a81548173ffffffffffffffffffffffffffffffffffffffff021916908373ffffffffffffffffffffffffffffffffffffffff16021790555091602001919060010190610c78565b5b509050610cde9190610ce2565b5090565b5b80821115610cfb576000816000905550600101610ce3565b5090565b600081359050610d0e8161148f565b92915050565b600081519050610d23816114a6565b92915050565b60008083601f840112610d3f57610d3e6113b2565b5b8235905067ffffffffffffffff811115610d5c57610d5b6113ad565b5b602083019150836001820283011115610d7857610d776113b7565b5b9250929050565b600081359050610d8e816114bd565b92915050565b600060208284031215610daa57610da96113c1565b5b6000610db884828501610cff565b91505092915050565b600060208284031215610dd757610dd66113c1565b5b6000610de584828501610d14565b91505092915050565b60008060208385031215610e0557610e046113c1565b5b600083013567ffffffffffffffff811115610e2357610e226113bc565b5b610e2f85828601610d29565b92509250509250929050565b600060208284031215610e5157610e506113c1565b5b6000610e5f84828501610d7f565b91505092915050565b6000610e748383610e8f565b60208301905092915050565b610e89816111e7565b82525050565b610e98816111d5565b82525050565b610ea7816111d5565b82525050565b6000610eb88261114b565b610ec2818561116e565b9350610ecd8361113b565b8060005b83811015610efe578151610ee58882610e68565b9750610ef083611161565b925050600181019050610ed1565b5085935050505092915050565b610f14816111f9565b82525050565b6000610f2582611156565b610f2f818561117f565b9350610f3f81856020860161125e565b610f48816113c6565b840191505092915050565b610f5c8161124c565b82525050565b6000610f6f601983611190565b9150610f7a826113d7565b602082019050919050565b6000610f92601083611190565b9150610f9d82611400565b602082019050919050565b6000610fb5601983611190565b9150610fc082611429565b602082019050919050565b6000610fd8601483611190565b9150610fe382611452565b602082019050919050565b610ff781611242565b82525050565b60006020820190506110126000830184610e9e565b92915050565b600060208201905061102d6000830184610e80565b92915050565b6000602082019050818103600083015261104d8184610ead565b905092915050565b600060408201905061106a6000830185610f0b565b818103602083015261107c8184610f1a565b90509392505050565b600060208201905061109a6000830184610f53565b92915050565b600060208201905081810360008301526110b981610f62565b9050919050565b600060208201905081810360008301526110d981610f85565b9050919050565b600060208201905081810360008301526110f981610fa8565b9050919050565b6000602082019050818103600083015261111981610fcb565b9050919050565b60006020820190506111356000830184610fee565b92915050565b6000819050602082019050919050565b600081519050919050565b600081519050919050565b6000602082019050919050565b600082825260208201905092915050565b600082825260208201905092915050565b600082825260208201905092915050565b60006111ac82611242565b91506111b783611242565b9250828210156111ca576111c96112c2565b5b828203905092915050565b60006111e082611222565b9050919050565b60006111f282611222565b9050919050565b60008115159050919050565b6000819050919050565b600081905061121d8261147b565b919050565b600073ffffffffffffffffffffffffffffffffffffffff82169050919050565b6000819050919050565b60006112578261120f565b9050919050565b60005b8381101561127c578082015181840152602081019050611261565b8381111561128b576000848401525b50505050565b600061129c82611242565b91506112a783611242565b9250826112b7576112b66112f1565b5b828206905092915050565b7f4e487b7100000000000000000000000000000000000000000000000000000000600052601160045260246000fd5b7f4e487b7100000000000000000000000000000000000000000000000000000000600052601260045260246000fd5b7f4e487b7100000000000000000000000000000000000000000000000000000000600052602160045260246000fd5b7f4e487b7100000000000000000000000000000000000000000000000000000000600052603260045260246000fd5b7f4e487b7100000000000000000000000000000000000000000000000000000000600052604160045260246000fd5b600080fd5b600080fd5b600080fd5b600080fd5b600080fd5b6000601f19601f8301169050919050565b7f4e6f742074696d6520746f2063686f6f73652077696e6e657200000000000000600082015250565b7f72616e646f6d206e6f7420666f756e6400000000000000000000000000000000600082015250565b7f43616e27742073746172742061206e6577206c6f747465727900000000000000600082015250565b7f4c6f7474657279206e6f7420796574206f70656e000000000000000000000000600082015250565b6003811061148c5761148b611320565b5b50565b611498816111d5565b81146114a357600080fd5b50565b6114af81611205565b81146114ba57600080fd5b50565b6114c681611242565b81146114d157600080fd5b5056fea26469706673582212208babfcddab6d15260c2f779817dcc1c9183ba31b03e58f93f02b1311c02b706064736f6c63430008070033",
  "immutableReferences": {},
  "source": "// SPDX-License-Identifier: MIT\npragma solidity ^0.8.7;\n\nimport \"@chainlink/contracts/src/v0.8/interfaces/KeeperCompatibleInterface.sol\";\nimport \"./Random.sol\"; \n\n/// @title A lottery contract \n/// @author Jason Porter\n/// @notice You can use this contract to run a lottery on the blockchain\n/// @dev All function calls are currently implemented without side effects\ncontract Lottery is KeeperCompatibleInterface{\n  enum LOTTERY_STATE {OPEN, CLOSED, DRAWING}   /// @notice Enum for all possible states the lottery can be in\n  LOTTERY_STATE public lottery_state;     /// @notice The current state of the lottery contract\n  address[] public players;     /// @notice The players that have entered the lottery\n  address payable public winner;    /// @notice The winner of the current run of the lottery\n  address public owner;     /// @notice The individual who deployed the contract\n  address public random;    /// @notice The address of the Random contract used to generate random numbers\n\n  uint public duration;     /// @notice The time period that a lottery will run for\n  uint public lastTimeStamp;    /// @notice Used as the starting time to measure the elapsed duration \n\n/// @notice Sets deployer as contract owner and initializes contract state to closed\n  constructor(){\n    owner = msg.sender;\n    lottery_state = LOTTERY_STATE.CLOSED;\n  }\n\n  /// @notice Initializes lottery contract with address of random contract\n  /// @param _random The address of the Random contract \n  function initialize(address _random) public{\n    require(msg.sender == owner);\n    random = _random;\n  }\n\n  /// @notice Allows players to enter the lottery by sending ETH\n  /// @dev Function is payable and recieves ETH which is added to contract balance\n  function enter() public payable{\n    require(lottery_state == LOTTERY_STATE.OPEN, \"Lottery not yet open\");\n    players.push(msg.sender);\n  }\n\n  /// @notice Starts a new lottery of length \"duration\"\n  /// @param _duration The time duration for the lottery\n  /// @dev Parameter is integer representing time period in seconds\n  function startNewLottery(uint256 _duration) public{\n    require(msg.sender == owner);\n    require(lottery_state == LOTTERY_STATE.CLOSED, \"Can't start a new lottery\");\n    lottery_state = LOTTERY_STATE.OPEN;\n    winner = payable (address(0));\n    duration = _duration;\n    lastTimeStamp = block.timestamp;\n  }\n\n  /// @notice ChainLink Keeper function to run a timer of length \"duration\"\n  /// @dev The parameter is not used in this function as no call data is required\n  /// @return upkeepNeeded - Boolean value indicating whether upkeep is needed \n  function checkUpkeep(bytes calldata /* checkData */) external view override returns (bool upkeepNeeded, bytes memory /* performData */) {\n    if(lottery_state == LOTTERY_STATE.OPEN){\n        upkeepNeeded = (block.timestamp - lastTimeStamp) >= duration;\n    }\n    else{\n        upkeepNeeded = false;\n    }\n  }\n\n  /// @notice ChainLink Keeper function to perform process of getting random number once \"duration\" has elapsed\n  /// @dev The parameter is not used as no call data is required. Function calls Random contract.\n  function performUpkeep(bytes calldata /* performData */) external override {\n    require(msg.sender == 0x4Cb093f226983713164A62138C3F718A5b595F73);\n    lottery_state = LOTTERY_STATE.DRAWING;\n    Random(random).getRandomNumber();\n  }\n\n  /// @notice Chooses a winner randomly from the list of players and transfers the lottery pool to the winner then closes the lottery\n  /// @dev Function is called by the Random contract \n  function pickWinner(uint256 randomness) external{\n    require(msg.sender == random);\n    require(lottery_state == LOTTERY_STATE.DRAWING, \"Not time to choose winner\");\n    require(randomness > 0, \"random not found\");\n    uint256 index = randomness % players.length;\n    winner = payable (players[index]);\n    winner.transfer(address(this).balance);\n    players = new address[](0);\n    lottery_state = LOTTERY_STATE.CLOSED;\n  }\n\n  /// @notice Returns the entered players\n  function getPlayers() public view returns (address[] memory) {\n    return players;\n  }\n\n  /// @notice Returns the lottery pool balance\n  function getPool() public view returns(uint256){\n    return address(this).balance;\n  }\n\n  /// @notice Circuit breaker function to stop lottery in emergency\n  function stopLottery() public{\n    require(msg.sender == owner);\n    lottery_state = LOTTERY_STATE.CLOSED;\n  }\n\n}\n",
  "sourcePath": "/Users/joporter/GitHub/blockchain-developer-bootcamp-final-project/contracts/Lottery.sol",
  "compiler": {
    "name": "solc",
    "version": "0.8.7+commit.e28d00a7.Emscripten.clang"
  },
  "schemaVersion": "3.4.3",
  "updatedAt": "2021-11-13T18:40:21.158Z",
  "networkType": "ethereum",
  "devdoc": {
    "author": "Jason Porter",
    "details": "All function calls are currently implemented without side effects",
    "kind": "dev",
    "methods": {
      "checkUpkeep(bytes)": {
        "details": "The parameter is not used in this function as no call data is required",
        "returns": {
          "upkeepNeeded": "- Boolean value indicating whether upkeep is needed "
        }
      },
      "enter()": {
        "details": "Function is payable and recieves ETH which is added to contract balance"
      },
      "initialize(address)": {
        "params": {
          "_random": "The address of the Random contract "
        }
      },
      "performUpkeep(bytes)": {
        "details": "The parameter is not used as no call data is required. Function calls Random contract."
      },
      "pickWinner(uint256)": {
        "details": "Function is called by the Random contract "
      },
      "startNewLottery(uint256)": {
        "details": "Parameter is integer representing time period in seconds",
        "params": {
          "_duration": "The time duration for the lottery"
        }
      }
    },
    "title": "A lottery contract ",
    "version": 1
  },
  "userdoc": {
    "kind": "user",
    "methods": {
      "checkUpkeep(bytes)": {
        "notice": "ChainLink Keeper function to run a timer of length \"duration\""
      },
      "constructor": {
        "notice": "Sets deployer as contract owner and initializes contract state to closed"
      },
      "duration()": {
        "notice": "The address of the Random contract used to generate random numbers"
      },
      "enter()": {
        "notice": "Allows players to enter the lottery by sending ETH"
      },
      "getPlayers()": {
        "notice": "Returns the entered players"
      },
      "getPool()": {
        "notice": "Returns the lottery pool balance"
      },
      "initialize(address)": {
        "notice": "Initializes lottery contract with address of random contract"
      },
      "lastTimeStamp()": {
        "notice": "The time period that a lottery will run for"
      },
      "lottery_state()": {
        "notice": "Enum for all possible states the lottery can be in"
      },
      "owner()": {
        "notice": "The winner of the current run of the lottery"
      },
      "performUpkeep(bytes)": {
        "notice": "ChainLink Keeper function to perform process of getting random number once \"duration\" has elapsed"
      },
      "pickWinner(uint256)": {
        "notice": "Chooses a winner randomly from the list of players and transfers the lottery pool to the winner then closes the lottery"
      },
      "players(uint256)": {
        "notice": "The current state of the lottery contract"
      },
      "random()": {
        "notice": "The individual who deployed the contract"
      },
      "startNewLottery(uint256)": {
        "notice": "Starts a new lottery of length \"duration\""
      },
      "stopLottery()": {
        "notice": "Circuit breaker function to stop lottery in emergency"
      },
      "winner()": {
        "notice": "The players that have entered the lottery"
      }
    },
    "notice": "You can use this contract to run a lottery on the blockchain",
    "version": 1
  }
}