{
  "contractName": "Random",
  "abi": [
    {
      "inputs": [],
      "stateMutability": "nonpayable",
      "type": "constructor"
    },
    {
      "inputs": [],
      "name": "lottery",
      "outputs": [
        {
          "internalType": "address",
          "name": "",
          "type": "address"
        }
      ],
      "stateMutability": "view",
      "type": "function",
      "constant": true
    },
    {
      "inputs": [],
      "name": "randomResult",
      "outputs": [
        {
          "internalType": "uint256",
          "name": "",
          "type": "uint256"
        }
      ],
      "stateMutability": "view",
      "type": "function",
      "constant": true
    },
    {
      "inputs": [
        {
          "internalType": "bytes32",
          "name": "requestId",
          "type": "bytes32"
        },
        {
          "internalType": "uint256",
          "name": "randomness",
          "type": "uint256"
        }
      ],
      "name": "rawFulfillRandomness",
      "outputs": [],
      "stateMutability": "nonpayable",
      "type": "function"
    },
    {
      "inputs": [
        {
          "internalType": "address",
          "name": "_lottery",
          "type": "address"
        }
      ],
      "name": "initialize",
      "outputs": [],
      "stateMutability": "nonpayable",
      "type": "function"
    },
    {
      "inputs": [],
      "name": "getRandomNumber",
      "outputs": [
        {
          "internalType": "bytes32",
          "name": "requestId",
          "type": "bytes32"
        }
      ],
      "stateMutability": "nonpayable",
      "type": "function"
    }
  ],
  "bytecode": "0x60c060405234801561001057600080fd5b5073dd3782915140c8f3b190b5d67eac6dc5760c46e973a36085f69e2889c224210f603d836748e7dc00888173ffffffffffffffffffffffffffffffffffffffff1660a08173ffffffffffffffffffffffffffffffffffffffff1660601b815250508073ffffffffffffffffffffffffffffffffffffffff1660808173ffffffffffffffffffffffffffffffffffffffff1660601b8152505050507f6c3699283bda56ad74f6b855546325b68d482e983852a7a82979cc4807b641f460001b60018190555067016345785d8a000060028190555060805160601c60a05160601c610be661011c6000396000818160f6015261047a015260008181610201015261043e0152610be66000f3fe608060405234801561001057600080fd5b50600436106100575760003560e01c806342619f661461005c57806394985ddd1461007a578063ba13a57214610096578063c4d66de8146100b4578063dbdff2c1146100d0575b600080fd5b6100646100ee565b6040516100719190610960565b60405180910390f35b610094600480360381019061008f91906106cb565b6100f4565b005b61009e610190565b6040516100ab919061083e565b60405180910390f35b6100ce60048036038101906100c99190610671565b6101b6565b005b6100d86101fa565b6040516100e59190610897565b60405180910390f35b60035481565b7f000000000000000000000000000000000000000000000000000000000000000073ffffffffffffffffffffffffffffffffffffffff163373ffffffffffffffffffffffffffffffffffffffff1614610182576040517f08c379a000000000000000000000000000000000000000000000000000000000815260040161017990610940565b60405180910390fd5b61018c8282610356565b5050565b600460009054906101000a900473ffffffffffffffffffffffffffffffffffffffff1681565b80600460006101000a81548173ffffffffffffffffffffffffffffffffffffffff021916908373ffffffffffffffffffffffffffffffffffffffff16021790555050565b60006002547f000000000000000000000000000000000000000000000000000000000000000073ffffffffffffffffffffffffffffffffffffffff166370a08231306040518263ffffffff1660e01b8152600401610258919061083e565b60206040518083038186803b15801561027057600080fd5b505afa158015610284573d6000803e3d6000fd5b505050506040513d601f19601f820116820180604052508101906102a8919061070b565b10156102e9576040517f08c379a00000000000000000000000000000000000000000000000000000000081526004016102e090610920565b60405180910390fd5b600460009054906101000a900473ffffffffffffffffffffffffffffffffffffffff1673ffffffffffffffffffffffffffffffffffffffff163373ffffffffffffffffffffffffffffffffffffffff161461034357600080fd5b61035160015460025461043a565b905090565b73dd3782915140c8f3b190b5d67eac6dc5760c46e973ffffffffffffffffffffffffffffffffffffffff163373ffffffffffffffffffffffffffffffffffffffff16146103a257600080fd5b80600381905550600460009054906101000a900473ffffffffffffffffffffffffffffffffffffffff1673ffffffffffffffffffffffffffffffffffffffff1663f737d21d826040518263ffffffff1660e01b81526004016104049190610960565b600060405180830381600087803b15801561041e57600080fd5b505af1158015610432573d6000803e3d6000fd5b505050505050565b60007f000000000000000000000000000000000000000000000000000000000000000073ffffffffffffffffffffffffffffffffffffffff16634000aea07f0000000000000000000000000000000000000000000000000000000000000000848660006040516020016104ae9291906108b2565b6040516020818303038152906040526040518463ffffffff1660e01b81526004016104db93929190610859565b602060405180830381600087803b1580156104f557600080fd5b505af1158015610509573d6000803e3d6000fd5b505050506040513d601f19601f8201168201806040525081019061052d919061069e565b50600061054f8460003060008089815260200190815260200160002054610599565b905060016000808681526020019081526020016000205461057091906109a8565b6000808681526020019081526020016000208190555061059084826105d5565b91505092915050565b6000848484846040516020016105b294939291906108db565b6040516020818303038152906040528051906020012060001c9050949350505050565b600082826040516020016105ea929190610812565b60405160208183030381529060405280519060200120905092915050565b60008135905061061781610b54565b92915050565b60008151905061062c81610b6b565b92915050565b60008135905061064181610b82565b92915050565b60008135905061065681610b99565b92915050565b60008151905061066b81610b99565b92915050565b60006020828403121561068757610686610ac6565b5b600061069584828501610608565b91505092915050565b6000602082840312156106b4576106b3610ac6565b5b60006106c28482850161061d565b91505092915050565b600080604083850312156106e2576106e1610ac6565b5b60006106f085828601610632565b925050602061070185828601610647565b9150509250929050565b60006020828403121561072157610720610ac6565b5b600061072f8482850161065c565b91505092915050565b610741816109fe565b82525050565b61075081610a1c565b82525050565b61076761076282610a1c565b610a83565b82525050565b60006107788261097b565b6107828185610986565b9350610792818560208601610a50565b61079b81610acb565b840191505092915050565b60006107b3602b83610997565b91506107be82610adc565b604082019050919050565b60006107d6601f83610997565b91506107e182610b2b565b602082019050919050565b6107f581610a46565b82525050565b61080c61080782610a46565b610a8d565b82525050565b600061081e8285610756565b60208201915061082e82846107fb565b6020820191508190509392505050565b60006020820190506108536000830184610738565b92915050565b600060608201905061086e6000830186610738565b61087b60208301856107ec565b818103604083015261088d818461076d565b9050949350505050565b60006020820190506108ac6000830184610747565b92915050565b60006040820190506108c76000830185610747565b6108d460208301846107ec565b9392505050565b60006080820190506108f06000830187610747565b6108fd60208301866107ec565b61090a6040830185610738565b61091760608301846107ec565b95945050505050565b60006020820190508181036000830152610939816107a6565b9050919050565b60006020820190508181036000830152610959816107c9565b9050919050565b600060208201905061097560008301846107ec565b92915050565b600081519050919050565b600082825260208201905092915050565b600082825260208201905092915050565b60006109b382610a46565b91506109be83610a46565b9250827fffffffffffffffffffffffffffffffffffffffffffffffffffffffffffffffff038211156109f3576109f2610a97565b5b828201905092915050565b6000610a0982610a26565b9050919050565b60008115159050919050565b6000819050919050565b600073ffffffffffffffffffffffffffffffffffffffff82169050919050565b6000819050919050565b60005b83811015610a6e578082015181840152602081019050610a53565b83811115610a7d576000848401525b50505050565b6000819050919050565b6000819050919050565b7f4e487b7100000000000000000000000000000000000000000000000000000000600052601160045260246000fd5b600080fd5b6000601f19601f8301169050919050565b7f4e6f7420656e6f756768204c494e4b202d2066696c6c20636f6e74726163742060008201527f7769746820666175636574000000000000000000000000000000000000000000602082015250565b7f4f6e6c7920565246436f6f7264696e61746f722063616e2066756c66696c6c00600082015250565b610b5d816109fe565b8114610b6857600080fd5b50565b610b7481610a10565b8114610b7f57600080fd5b50565b610b8b81610a1c565b8114610b9657600080fd5b50565b610ba281610a46565b8114610bad57600080fd5b5056fea2646970667358221220fba9b04d5f56359d1341fa4d9e4fea1e0e4ddc032d3f129164dce5384ec9f83e64736f6c63430008070033",
  "immutableReferences": {
    "73": [
      {
        "length": 32,
        "start": 513
      },
      {
        "length": 32,
        "start": 1086
      }
    ],
    "75": [
      {
        "length": 32,
        "start": 246
      },
      {
        "length": 32,
        "start": 1146
      }
    ]
  },
  "source": "// SPDX-License-Identifier: MIT\npragma solidity ^0.8.7;\n\nimport \"@chainlink/contracts/src/v0.8/VRFConsumerBase.sol\";\nimport \"./Lottery.sol\";\n\n/// @title A random number contract \n/// @author Jason Porter\n/// @notice You can use this contract to generate a random number on the blockchain \n/// @dev All function calls are currently implemented without side effects\ncontract Random is VRFConsumerBase{\n    bytes32 internal keyHash;  /// @notice Key hash used for call to VRF oracle\n    uint256 internal fee;  /// @notice Fee required for oracle service \n\n    uint256 public randomResult;  /// @notice The random number returned by VRF\n    address public lottery;  /// @notice The address of the lottery contract \n\n    /// @dev inherits constructor from VRFConsumerBase\n    constructor() \n        VRFConsumerBase(\n            0xdD3782915140c8f3b190B5D67eAc6dc5760C46E9, // VRF Coordinator\n            0xa36085F69e2889c224210F603D836748e7dC0088  // LINK Token\n        )\n    {\n        keyHash = 0x6c3699283bda56ad74f6b855546325b68d482e983852a7a82979cc4807b641f4;\n        fee = 0.1 * 10 ** 18; // 0.1 LINK (Varies by network)\n    }\n\n    /// @notice Initializes random contract with address of lottery contract\n    /// @param _lottery The address of the lottery contract\n    function initialize(address _lottery) public{\n        lottery = _lottery;\n    }\n\n    /// @notice Makes request to ChainLink VRF oracle for random number\n    /// @return requestId - Unique id for random number request\n    function getRandomNumber() public returns (bytes32 requestId) {\n        require(LINK.balanceOf(address(this)) >= fee, \"Not enough LINK - fill contract with faucet\");\n        require(msg.sender == lottery);\n        return requestRandomness(keyHash, fee);\n    } \n\n    /// @notice Callback function used by VRF Coordinator to return random number \n    /// @param requestId Unique id for random number request\n    /// @param randomness Random number returned by Chainlink VRF \n    function fulfillRandomness(bytes32 requestId, uint256 randomness) internal override {\n        require(msg.sender ==  0xdD3782915140c8f3b190B5D67eAc6dc5760C46E9);\n        randomResult = randomness;\n        Lottery(lottery).pickWinner(randomness);\n    }   \n}",
  "sourcePath": "/Users/joporter/GitHub/blockchain-developer-bootcamp-final-project/contracts/Random.sol",
  "compiler": {
    "name": "solc",
    "version": "0.8.7+commit.e28d00a7.Emscripten.clang"
  },
  "schemaVersion": "3.4.3",
  "updatedAt": "2021-11-13T18:40:21.166Z",
  "networkType": "ethereum",
  "devdoc": {
    "author": "Jason Porter",
    "details": "All function calls are currently implemented without side effects",
    "kind": "dev",
    "methods": {
      "constructor": {
        "details": "inherits constructor from VRFConsumerBase"
      },
      "getRandomNumber()": {
        "returns": {
          "requestId": "- Unique id for random number request"
        }
      },
      "initialize(address)": {
        "params": {
          "_lottery": "The address of the lottery contract"
        }
      }
    },
    "title": "A random number contract ",
    "version": 1
  },
  "userdoc": {
    "kind": "user",
    "methods": {
      "getRandomNumber()": {
        "notice": "Makes request to ChainLink VRF oracle for random number"
      },
      "initialize(address)": {
        "notice": "Initializes random contract with address of lottery contract"
      },
      "lottery()": {
        "notice": "The random number returned by VRF"
      },
      "randomResult()": {
        "notice": "Fee required for oracle service "
      }
    },
    "notice": "You can use this contract to generate a random number on the blockchain ",
    "version": 1
  }
}